{
  "contractName": "NFT",
  "abi": [
    {
      "inputs": [
        {
          "internalType": "string",
          "name": "_name",
          "type": "string"
        },
        {
          "internalType": "string",
          "name": "_symbol",
          "type": "string"
        },
        {
          "internalType": "string",
          "name": "_initBaseURI",
          "type": "string"
        }
      ],
      "stateMutability": "nonpayable",
      "type": "constructor"
    },
    {
      "anonymous": false,
      "inputs": [
        {
          "indexed": true,
          "internalType": "address",
          "name": "owner",
          "type": "address"
        },
        {
          "indexed": true,
          "internalType": "address",
          "name": "approved",
          "type": "address"
        },
        {
          "indexed": true,
          "internalType": "uint256",
          "name": "tokenId",
          "type": "uint256"
        }
      ],
      "name": "Approval",
      "type": "event"
    },
    {
      "anonymous": false,
      "inputs": [
        {
          "indexed": true,
          "internalType": "address",
          "name": "owner",
          "type": "address"
        },
        {
          "indexed": true,
          "internalType": "address",
          "name": "operator",
          "type": "address"
        },
        {
          "indexed": false,
          "internalType": "bool",
          "name": "approved",
          "type": "bool"
        }
      ],
      "name": "ApprovalForAll",
      "type": "event"
    },
    {
      "anonymous": false,
      "inputs": [
        {
          "indexed": true,
          "internalType": "address",
          "name": "previousOwner",
          "type": "address"
        },
        {
          "indexed": true,
          "internalType": "address",
          "name": "newOwner",
          "type": "address"
        }
      ],
      "name": "OwnershipTransferred",
      "type": "event"
    },
    {
      "anonymous": false,
      "inputs": [
        {
          "indexed": true,
          "internalType": "address",
          "name": "from",
          "type": "address"
        },
        {
          "indexed": true,
          "internalType": "address",
          "name": "to",
          "type": "address"
        },
        {
          "indexed": true,
          "internalType": "uint256",
          "name": "tokenId",
          "type": "uint256"
        }
      ],
      "name": "Transfer",
      "type": "event"
    },
    {
      "inputs": [
        {
          "internalType": "address",
          "name": "to",
          "type": "address"
        },
        {
          "internalType": "uint256",
          "name": "tokenId",
          "type": "uint256"
        }
      ],
      "name": "approve",
      "outputs": [],
      "stateMutability": "nonpayable",
      "type": "function"
    },
    {
      "inputs": [
        {
          "internalType": "address",
          "name": "owner",
          "type": "address"
        }
      ],
      "name": "balanceOf",
      "outputs": [
        {
          "internalType": "uint256",
          "name": "",
          "type": "uint256"
        }
      ],
      "stateMutability": "view",
      "type": "function"
    },
    {
      "inputs": [],
      "name": "baseExtension",
      "outputs": [
        {
          "internalType": "string",
          "name": "",
          "type": "string"
        }
      ],
      "stateMutability": "view",
      "type": "function"
    },
    {
      "inputs": [],
      "name": "baseURI",
      "outputs": [
        {
          "internalType": "string",
          "name": "",
          "type": "string"
        }
      ],
      "stateMutability": "view",
      "type": "function"
    },
    {
      "inputs": [],
      "name": "cost",
      "outputs": [
        {
          "internalType": "uint256",
          "name": "",
          "type": "uint256"
        }
      ],
      "stateMutability": "view",
      "type": "function"
    },
    {
      "inputs": [
        {
          "internalType": "uint256",
          "name": "tokenId",
          "type": "uint256"
        }
      ],
      "name": "getApproved",
      "outputs": [
        {
          "internalType": "address",
          "name": "",
          "type": "address"
        }
      ],
      "stateMutability": "view",
      "type": "function"
    },
    {
      "inputs": [
        {
          "internalType": "address",
          "name": "owner",
          "type": "address"
        },
        {
          "internalType": "address",
          "name": "operator",
          "type": "address"
        }
      ],
      "name": "isApprovedForAll",
      "outputs": [
        {
          "internalType": "bool",
          "name": "",
          "type": "bool"
        }
      ],
      "stateMutability": "view",
      "type": "function"
    },
    {
      "inputs": [],
      "name": "maxMintAmount",
      "outputs": [
        {
          "internalType": "uint256",
          "name": "",
          "type": "uint256"
        }
      ],
      "stateMutability": "view",
      "type": "function"
    },
    {
      "inputs": [],
      "name": "maxSupply",
      "outputs": [
        {
          "internalType": "uint256",
          "name": "",
          "type": "uint256"
        }
      ],
      "stateMutability": "view",
      "type": "function"
    },
    {
      "inputs": [],
      "name": "name",
      "outputs": [
        {
          "internalType": "string",
          "name": "",
          "type": "string"
        }
      ],
      "stateMutability": "view",
      "type": "function"
    },
    {
      "inputs": [],
      "name": "owner",
      "outputs": [
        {
          "internalType": "address",
          "name": "",
          "type": "address"
        }
      ],
      "stateMutability": "view",
      "type": "function"
    },
    {
      "inputs": [
        {
          "internalType": "uint256",
          "name": "tokenId",
          "type": "uint256"
        }
      ],
      "name": "ownerOf",
      "outputs": [
        {
          "internalType": "address",
          "name": "",
          "type": "address"
        }
      ],
      "stateMutability": "view",
      "type": "function"
    },
    {
      "inputs": [],
      "name": "paused",
      "outputs": [
        {
          "internalType": "bool",
          "name": "",
          "type": "bool"
        }
      ],
      "stateMutability": "view",
      "type": "function"
    },
    {
      "inputs": [],
      "name": "renounceOwnership",
      "outputs": [],
      "stateMutability": "nonpayable",
      "type": "function"
    },
    {
      "inputs": [
        {
          "internalType": "address",
          "name": "from",
          "type": "address"
        },
        {
          "internalType": "address",
          "name": "to",
          "type": "address"
        },
        {
          "internalType": "uint256",
          "name": "tokenId",
          "type": "uint256"
        }
      ],
      "name": "safeTransferFrom",
      "outputs": [],
      "stateMutability": "nonpayable",
      "type": "function"
    },
    {
      "inputs": [
        {
          "internalType": "address",
          "name": "from",
          "type": "address"
        },
        {
          "internalType": "address",
          "name": "to",
          "type": "address"
        },
        {
          "internalType": "uint256",
          "name": "tokenId",
          "type": "uint256"
        },
        {
          "internalType": "bytes",
          "name": "_data",
          "type": "bytes"
        }
      ],
      "name": "safeTransferFrom",
      "outputs": [],
      "stateMutability": "nonpayable",
      "type": "function"
    },
    {
      "inputs": [
        {
          "internalType": "address",
          "name": "operator",
          "type": "address"
        },
        {
          "internalType": "bool",
          "name": "approved",
          "type": "bool"
        }
      ],
      "name": "setApprovalForAll",
      "outputs": [],
      "stateMutability": "nonpayable",
      "type": "function"
    },
    {
      "inputs": [
        {
          "internalType": "bytes4",
          "name": "interfaceId",
          "type": "bytes4"
        }
      ],
      "name": "supportsInterface",
      "outputs": [
        {
          "internalType": "bool",
          "name": "",
          "type": "bool"
        }
      ],
      "stateMutability": "view",
      "type": "function"
    },
    {
      "inputs": [],
      "name": "symbol",
      "outputs": [
        {
          "internalType": "string",
          "name": "",
          "type": "string"
        }
      ],
      "stateMutability": "view",
      "type": "function"
    },
    {
      "inputs": [
        {
          "internalType": "uint256",
          "name": "index",
          "type": "uint256"
        }
      ],
      "name": "tokenByIndex",
      "outputs": [
        {
          "internalType": "uint256",
          "name": "",
          "type": "uint256"
        }
      ],
      "stateMutability": "view",
      "type": "function"
    },
    {
      "inputs": [
        {
          "internalType": "address",
          "name": "owner",
          "type": "address"
        },
        {
          "internalType": "uint256",
          "name": "index",
          "type": "uint256"
        }
      ],
      "name": "tokenOfOwnerByIndex",
      "outputs": [
        {
          "internalType": "uint256",
          "name": "",
          "type": "uint256"
        }
      ],
      "stateMutability": "view",
      "type": "function"
    },
    {
      "inputs": [],
      "name": "totalSupply",
      "outputs": [
        {
          "internalType": "uint256",
          "name": "",
          "type": "uint256"
        }
      ],
      "stateMutability": "view",
      "type": "function"
    },
    {
      "inputs": [
        {
          "internalType": "address",
          "name": "from",
          "type": "address"
        },
        {
          "internalType": "address",
          "name": "to",
          "type": "address"
        },
        {
          "internalType": "uint256",
          "name": "tokenId",
          "type": "uint256"
        }
      ],
      "name": "transferFrom",
      "outputs": [],
      "stateMutability": "nonpayable",
      "type": "function"
    },
    {
      "inputs": [
        {
          "internalType": "address",
          "name": "newOwner",
          "type": "address"
        }
      ],
      "name": "transferOwnership",
      "outputs": [],
      "stateMutability": "nonpayable",
      "type": "function"
    },
    {
      "inputs": [
        {
          "internalType": "address",
          "name": "",
          "type": "address"
        }
      ],
      "name": "whitelisted",
      "outputs": [
        {
          "internalType": "bool",
          "name": "",
          "type": "bool"
        }
      ],
      "stateMutability": "view",
      "type": "function"
    },
    {
      "inputs": [
        {
          "internalType": "address",
          "name": "_to",
          "type": "address"
        },
        {
          "internalType": "uint256",
          "name": "_mintAmount",
          "type": "uint256"
        }
      ],
      "name": "mint",
      "outputs": [],
      "stateMutability": "payable",
      "type": "function"
    },
    {
      "inputs": [
        {
          "internalType": "address",
          "name": "_owner",
          "type": "address"
        }
      ],
      "name": "walletOfOwner",
      "outputs": [
        {
          "internalType": "uint256[]",
          "name": "",
          "type": "uint256[]"
        }
      ],
      "stateMutability": "view",
      "type": "function"
    },
    {
      "inputs": [
        {
          "internalType": "uint256",
          "name": "tokenId",
          "type": "uint256"
        }
      ],
      "name": "tokenURI",
      "outputs": [
        {
          "internalType": "string",
          "name": "",
          "type": "string"
        }
      ],
      "stateMutability": "view",
      "type": "function"
    },
    {
      "inputs": [
        {
          "internalType": "uint256",
          "name": "_newCost",
          "type": "uint256"
        }
      ],
      "name": "setCost",
      "outputs": [],
      "stateMutability": "nonpayable",
      "type": "function"
    },
    {
      "inputs": [
        {
          "internalType": "uint256",
          "name": "_newmaxMintAmount",
          "type": "uint256"
        }
      ],
      "name": "setmaxMintAmount",
      "outputs": [],
      "stateMutability": "nonpayable",
      "type": "function"
    },
    {
      "inputs": [
        {
          "internalType": "string",
          "name": "_newBaseURI",
          "type": "string"
        }
      ],
      "name": "setBaseURI",
      "outputs": [],
      "stateMutability": "nonpayable",
      "type": "function"
    },
    {
      "inputs": [
        {
          "internalType": "string",
          "name": "_newBaseExtension",
          "type": "string"
        }
      ],
      "name": "setBaseExtension",
      "outputs": [],
      "stateMutability": "nonpayable",
      "type": "function"
    },
    {
      "inputs": [
        {
          "internalType": "bool",
          "name": "_state",
          "type": "bool"
        }
      ],
      "name": "pause",
      "outputs": [],
      "stateMutability": "nonpayable",
      "type": "function"
    },
    {
      "inputs": [
        {
          "internalType": "address",
          "name": "_user",
          "type": "address"
        }
      ],
      "name": "whitelistUser",
      "outputs": [],
      "stateMutability": "nonpayable",
      "type": "function"
    },
    {
      "inputs": [
        {
          "internalType": "address",
          "name": "_user",
          "type": "address"
        }
      ],
      "name": "removeWhitelistUser",
      "outputs": [],
      "stateMutability": "nonpayable",
      "type": "function"
    },
    {
      "inputs": [],
      "name": "withdraw",
      "outputs": [],
      "stateMutability": "payable",
      "type": "function"
    }
  ],
  "bytecode": "0x60806040526040518060400160405280600581526020017f2e6a736f6e000000000000000000000000000000000000000000000000000000815250600c90805190602001906200005192919062000eac565b5066b1a2bc2ec50000600d55612710600e556014600f556000601060006101000a81548160ff0219169083151502179055503480156200009057600080fd5b5060405162005c5838038062005c588339818101604052810190620000b6919062001011565b82828160009080519060200190620000d092919062000eac565b508060019080519060200190620000e992919062000eac565b5050506200010c620001006200013960201b60201c565b6200014160201b60201c565b6200011d816200020760201b60201c565b62000130336014620002b260201b60201c565b50505062001786565b600033905090565b6000600a60009054906101000a900473ffffffffffffffffffffffffffffffffffffffff16905081600a60006101000a81548173ffffffffffffffffffffffffffffffffffffffff021916908373ffffffffffffffffffffffffffffffffffffffff1602179055508173ffffffffffffffffffffffffffffffffffffffff168173ffffffffffffffffffffffffffffffffffffffff167f8be0079c531659141344cd1fd0a4f28419497f9722a3daafe3b4186f6b6457e060405160405180910390a35050565b620002176200013960201b60201c565b73ffffffffffffffffffffffffffffffffffffffff166200023d6200042160201b60201c565b73ffffffffffffffffffffffffffffffffffffffff161462000296576040517f08c379a00000000000000000000000000000000000000000000000000000000081526004016200028d90620012b4565b60405180910390fd5b80600b9080519060200190620002ae92919062000eac565b5050565b6000620002c46200044b60201b60201c565b9050601060009054906101000a900460ff1615620002e157600080fd5b60008211620002ef57600080fd5b600f54821115620002ff57600080fd5b600e54828262000310919062001362565b11156200031c57600080fd5b6200032c6200042160201b60201c565b73ffffffffffffffffffffffffffffffffffffffff163373ffffffffffffffffffffffffffffffffffffffff1614620003d75760011515601160003373ffffffffffffffffffffffffffffffffffffffff1673ffffffffffffffffffffffffffffffffffffffff16815260200190815260200160002060009054906101000a900460ff16151514620003d65781600d54620003c89190620013bf565b341015620003d557600080fd5b5b5b6000600190505b8281116200041b5762000405848284620003f9919062001362565b6200045860201b60201c565b8080620004129062001567565b915050620003de565b50505050565b6000600a60009054906101000a900473ffffffffffffffffffffffffffffffffffffffff16905090565b6000600880549050905090565b6200047a8282604051806020016040528060008152506200047e60201b60201c565b5050565b620004908383620004ec60201b60201c565b620004a56000848484620006d260201b60201c565b620004e7576040517f08c379a0000000000000000000000000000000000000000000000000000000008152600401620004de906200122c565b60405180910390fd5b505050565b600073ffffffffffffffffffffffffffffffffffffffff168273ffffffffffffffffffffffffffffffffffffffff1614156200055f576040517f08c379a0000000000000000000000000000000000000000000000000000000008152600401620005569062001292565b60405180910390fd5b62000570816200088c60201b60201c565b15620005b3576040517f08c379a0000000000000000000000000000000000000000000000000000000008152600401620005aa906200124e565b60405180910390fd5b620005c760008383620008f860201b60201c565b6001600360008473ffffffffffffffffffffffffffffffffffffffff1673ffffffffffffffffffffffffffffffffffffffff168152602001908152602001600020600082825462000619919062001362565b92505081905550816002600083815260200190815260200160002060006101000a81548173ffffffffffffffffffffffffffffffffffffffff021916908373ffffffffffffffffffffffffffffffffffffffff160217905550808273ffffffffffffffffffffffffffffffffffffffff16600073ffffffffffffffffffffffffffffffffffffffff167fddf252ad1be2c89b69c2b068fc378daa952ba7f163c4a11628f55a4df523b3ef60405160405180910390a45050565b6000620007008473ffffffffffffffffffffffffffffffffffffffff1662000a3f60201b62001b601760201c565b156200087f578373ffffffffffffffffffffffffffffffffffffffff1663150b7a02620007326200013960201b60201c565b8786866040518563ffffffff1660e01b8152600401620007569493929190620011d8565b602060405180830381600087803b1580156200077157600080fd5b505af1925050508015620007a557506040513d601f19601f82011682018060405250810190620007a2919062000fe5565b60015b6200082e573d8060008114620007d8576040519150601f19603f3d011682016040523d82523d6000602084013e620007dd565b606091505b5060008151141562000826576040517f08c379a00000000000000000000000000000000000000000000000000000000081526004016200081d906200122c565b60405180910390fd5b805181602001fd5b63150b7a0260e01b7bffffffffffffffffffffffffffffffffffffffffffffffffffffffff1916817bffffffffffffffffffffffffffffffffffffffffffffffffffffffff19161491505062000884565b600190505b949350505050565b60008073ffffffffffffffffffffffffffffffffffffffff166002600084815260200190815260200160002060009054906101000a900473ffffffffffffffffffffffffffffffffffffffff1673ffffffffffffffffffffffffffffffffffffffff1614159050919050565b6200091083838362000a5260201b62001b731760201c565b600073ffffffffffffffffffffffffffffffffffffffff168373ffffffffffffffffffffffffffffffffffffffff1614156200095d57620009578162000a5760201b60201c565b620009a5565b8173ffffffffffffffffffffffffffffffffffffffff168373ffffffffffffffffffffffffffffffffffffffff1614620009a457620009a3838262000aa060201b60201c565b5b5b600073ffffffffffffffffffffffffffffffffffffffff168273ffffffffffffffffffffffffffffffffffffffff161415620009f257620009ec8162000c1d60201b60201c565b62000a3a565b8273ffffffffffffffffffffffffffffffffffffffff168273ffffffffffffffffffffffffffffffffffffffff161462000a395762000a38828262000d6560201b60201c565b5b5b505050565b600080823b905060008111915050919050565b505050565b6008805490506009600083815260200190815260200160002081905550600881908060018154018082558091505060019003906000526020600020016000909190919091505550565b6000600162000aba8462000df160201b620014e61760201c565b62000ac6919062001420565b905060006007600084815260200190815260200160002054905081811462000bac576000600660008673ffffffffffffffffffffffffffffffffffffffff1673ffffffffffffffffffffffffffffffffffffffff168152602001908152602001600020600084815260200190815260200160002054905080600660008773ffffffffffffffffffffffffffffffffffffffff1673ffffffffffffffffffffffffffffffffffffffff168152602001908152602001600020600084815260200190815260200160002081905550816007600083815260200190815260200160002081905550505b6007600084815260200190815260200160002060009055600660008573ffffffffffffffffffffffffffffffffffffffff1673ffffffffffffffffffffffffffffffffffffffff16815260200190815260200160002060008381526020019081526020016000206000905550505050565b6000600160088054905062000c33919062001420565b905060006009600084815260200190815260200160002054905060006008838154811062000c8a577f4e487b7100000000000000000000000000000000000000000000000000000000600052603260045260246000fd5b90600052602060002001549050806008838154811062000cd3577f4e487b7100000000000000000000000000000000000000000000000000000000600052603260045260246000fd5b90600052602060002001819055508160096000838152602001908152602001600020819055506009600085815260200190815260200160002060009055600880548062000d49577f4e487b7100000000000000000000000000000000000000000000000000000000600052603160045260246000fd5b6001900381819060005260206000200160009055905550505050565b600062000d7d8362000df160201b620014e61760201c565b905081600660008573ffffffffffffffffffffffffffffffffffffffff1673ffffffffffffffffffffffffffffffffffffffff168152602001908152602001600020600083815260200190815260200160002081905550806007600084815260200190815260200160002081905550505050565b60008073ffffffffffffffffffffffffffffffffffffffff168273ffffffffffffffffffffffffffffffffffffffff16141562000e65576040517f08c379a000000000000000000000000000000000000000000000000000000000815260040162000e5c9062001270565b60405180910390fd5b600360008373ffffffffffffffffffffffffffffffffffffffff1673ffffffffffffffffffffffffffffffffffffffff168152602001908152602001600020549050919050565b82805462000eba90620014fb565b90600052602060002090601f01602090048101928262000ede576000855562000f2a565b82601f1062000ef957805160ff191683800117855562000f2a565b8280016001018555821562000f2a579182015b8281111562000f2957825182559160200191906001019062000f0c565b5b50905062000f39919062000f3d565b5090565b5b8082111562000f5857600081600090555060010162000f3e565b5090565b600062000f7362000f6d84620012ff565b620012d6565b90508281526020810184848401111562000f8c57600080fd5b62000f99848285620014c5565b509392505050565b60008151905062000fb2816200176c565b92915050565b600082601f83011262000fca57600080fd5b815162000fdc84826020860162000f5c565b91505092915050565b60006020828403121562000ff857600080fd5b6000620010088482850162000fa1565b91505092915050565b6000806000606084860312156200102757600080fd5b600084015167ffffffffffffffff8111156200104257600080fd5b620010508682870162000fb8565b935050602084015167ffffffffffffffff8111156200106e57600080fd5b6200107c8682870162000fb8565b925050604084015167ffffffffffffffff8111156200109a57600080fd5b620010a88682870162000fb8565b9150509250925092565b620010bd816200145b565b82525050565b6000620010d08262001335565b620010dc818562001340565b9350620010ee818560208601620014c5565b620010f98162001642565b840191505092915050565b60006200111360328362001351565b9150620011208262001653565b604082019050919050565b60006200113a601c8362001351565b91506200114782620016a2565b602082019050919050565b600062001161602a8362001351565b91506200116e82620016cb565b604082019050919050565b60006200118860208362001351565b915062001195826200171a565b602082019050919050565b6000620011af60208362001351565b9150620011bc8262001743565b602082019050919050565b620011d281620014bb565b82525050565b6000608082019050620011ef6000830187620010b2565b620011fe6020830186620010b2565b6200120d6040830185620011c7565b8181036060830152620012218184620010c3565b905095945050505050565b60006020820190508181036000830152620012478162001104565b9050919050565b6000602082019050818103600083015262001269816200112b565b9050919050565b600060208201905081810360008301526200128b8162001152565b9050919050565b60006020820190508181036000830152620012ad8162001179565b9050919050565b60006020820190508181036000830152620012cf81620011a0565b9050919050565b6000620012e2620012f5565b9050620012f0828262001531565b919050565b6000604051905090565b600067ffffffffffffffff8211156200131d576200131c62001613565b5b620013288262001642565b9050602081019050919050565b600081519050919050565b600082825260208201905092915050565b600082825260208201905092915050565b60006200136f82620014bb565b91506200137c83620014bb565b9250827fffffffffffffffffffffffffffffffffffffffffffffffffffffffffffffffff03821115620013b457620013b3620015b5565b5b828201905092915050565b6000620013cc82620014bb565b9150620013d983620014bb565b9250817fffffffffffffffffffffffffffffffffffffffffffffffffffffffffffffffff0483118215151615620014155762001414620015b5565b5b828202905092915050565b60006200142d82620014bb565b91506200143a83620014bb565b92508282101562001450576200144f620015b5565b5b828203905092915050565b600062001468826200149b565b9050919050565b60007fffffffff0000000000000000000000000000000000000000000000000000000082169050919050565b600073ffffffffffffffffffffffffffffffffffffffff82169050919050565b6000819050919050565b60005b83811015620014e5578082015181840152602081019050620014c8565b83811115620014f5576000848401525b50505050565b600060028204905060018216806200151457607f821691505b602082108114156200152b576200152a620015e4565b5b50919050565b6200153c8262001642565b810181811067ffffffffffffffff821117156200155e576200155d62001613565b5b80604052505050565b60006200157482620014bb565b91507fffffffffffffffffffffffffffffffffffffffffffffffffffffffffffffffff821415620015aa57620015a9620015b5565b5b600182019050919050565b7f4e487b7100000000000000000000000000000000000000000000000000000000600052601160045260246000fd5b7f4e487b7100000000000000000000000000000000000000000000000000000000600052602260045260246000fd5b7f4e487b7100000000000000000000000000000000000000000000000000000000600052604160045260246000fd5b6000601f19601f8301169050919050565b7f4552433732313a207472616e7366657220746f206e6f6e20455243373231526560008201527f63656976657220696d706c656d656e7465720000000000000000000000000000602082015250565b7f4552433732313a20746f6b656e20616c7265616479206d696e74656400000000600082015250565b7f4552433732313a2062616c616e636520717565727920666f7220746865207a6560008201527f726f206164647265737300000000000000000000000000000000000000000000602082015250565b7f4552433732313a206d696e7420746f20746865207a65726f2061646472657373600082015250565b7f4f776e61626c653a2063616c6c6572206973206e6f7420746865206f776e6572600082015250565b62001777816200146f565b81146200178357600080fd5b50565b6144c280620017966000396000f3fe60806040526004361061020f5760003560e01c806355f804b311610118578063a22cb465116100a0578063d5abeb011161006f578063d5abeb011461077f578063d936547e146107aa578063da3ef23f146107e7578063e985e9c514610810578063f2fde38b1461084d5761020f565b8063a22cb465146106c5578063b88d4fde146106ee578063c668286214610717578063c87b56dd146107425761020f565b806370a08231116100e757806370a08231146105f2578063715018a61461062f5780637f00c7a6146106465780638da5cb5b1461066f57806395d89b411461069a5761020f565b806355f804b3146105365780635c975abb1461055f5780636352211e1461058a5780636c0360eb146105c75761020f565b80632f745c591161019b57806342842e0e1161016a57806342842e0e14610441578063438b63001461046a57806344a0d68a146104a75780634a4c560d146104d05780634f6ccce7146104f95761020f565b80632f745c59146103b557806330cc7ae0146103f25780633ccfd60b1461041b57806340c10f19146104255761020f565b8063095ea7b3116101e2578063095ea7b3146102e257806313faede61461030b57806318160ddd14610336578063239c70ae1461036157806323b872dd1461038c5761020f565b806301ffc9a71461021457806302329a291461025157806306fdde031461027a578063081812fc146102a5575b600080fd5b34801561022057600080fd5b5061023b6004803603810190610236919061320f565b610876565b6040516102489190613807565b60405180910390f35b34801561025d57600080fd5b50610278600480360381019061027391906131e6565b6108f0565b005b34801561028657600080fd5b5061028f610989565b60405161029c9190613822565b60405180910390f35b3480156102b157600080fd5b506102cc60048036038101906102c791906132a2565b610a1b565b6040516102d9919061377e565b60405180910390f35b3480156102ee57600080fd5b50610309600480360381019061030491906131aa565b610aa0565b005b34801561031757600080fd5b50610320610bb8565b60405161032d9190613a84565b60405180910390f35b34801561034257600080fd5b5061034b610bbe565b6040516103589190613a84565b60405180910390f35b34801561036d57600080fd5b50610376610bcb565b6040516103839190613a84565b60405180910390f35b34801561039857600080fd5b506103b360048036038101906103ae91906130a4565b610bd1565b005b3480156103c157600080fd5b506103dc60048036038101906103d791906131aa565b610c31565b6040516103e99190613a84565b60405180910390f35b3480156103fe57600080fd5b506104196004803603810190610414919061303f565b610cd6565b005b610423610dad565b005b61043f600480360381019061043a91906131aa565b610ea9565b005b34801561044d57600080fd5b50610468600480360381019061046391906130a4565b610fef565b005b34801561047657600080fd5b50610491600480360381019061048c919061303f565b61100f565b60405161049e91906137e5565b60405180910390f35b3480156104b357600080fd5b506104ce60048036038101906104c991906132a2565b611109565b005b3480156104dc57600080fd5b506104f760048036038101906104f2919061303f565b61118f565b005b34801561050557600080fd5b50610520600480360381019061051b91906132a2565b611266565b60405161052d9190613a84565b60405180910390f35b34801561054257600080fd5b5061055d60048036038101906105589190613261565b6112fd565b005b34801561056b57600080fd5b50610574611393565b6040516105819190613807565b60405180910390f35b34801561059657600080fd5b506105b160048036038101906105ac91906132a2565b6113a6565b6040516105be919061377e565b60405180910390f35b3480156105d357600080fd5b506105dc611458565b6040516105e99190613822565b60405180910390f35b3480156105fe57600080fd5b506106196004803603810190610614919061303f565b6114e6565b6040516106269190613a84565b60405180910390f35b34801561063b57600080fd5b5061064461159e565b005b34801561065257600080fd5b5061066d600480360381019061066891906132a2565b611626565b005b34801561067b57600080fd5b506106846116ac565b604051610691919061377e565b60405180910390f35b3480156106a657600080fd5b506106af6116d6565b6040516106bc9190613822565b60405180910390f35b3480156106d157600080fd5b506106ec60048036038101906106e7919061316e565b611768565b005b3480156106fa57600080fd5b50610715600480360381019061071091906130f3565b61177e565b005b34801561072357600080fd5b5061072c6117e0565b6040516107399190613822565b60405180910390f35b34801561074e57600080fd5b50610769600480360381019061076491906132a2565b61186e565b6040516107769190613822565b60405180910390f35b34801561078b57600080fd5b50610794611918565b6040516107a19190613a84565b60405180910390f35b3480156107b657600080fd5b506107d160048036038101906107cc919061303f565b61191e565b6040516107de9190613807565b60405180910390f35b3480156107f357600080fd5b5061080e60048036038101906108099190613261565b61193e565b005b34801561081c57600080fd5b5061083760048036038101906108329190613068565b6119d4565b6040516108449190613807565b60405180910390f35b34801561085957600080fd5b50610874600480360381019061086f919061303f565b611a68565b005b60007f780e9d63000000000000000000000000000000000000000000000000000000007bffffffffffffffffffffffffffffffffffffffffffffffffffffffff1916827bffffffffffffffffffffffffffffffffffffffffffffffffffffffff191614806108e957506108e882611b78565b5b9050919050565b6108f8611c5a565b73ffffffffffffffffffffffffffffffffffffffff166109166116ac565b73ffffffffffffffffffffffffffffffffffffffff161461096c576040517f08c379a0000000000000000000000000000000000000000000000000000000008152600401610963906139c4565b60405180910390fd5b80601060006101000a81548160ff02191690831515021790555050565b60606000805461099890613d8d565b80601f01602080910402602001604051908101604052809291908181526020018280546109c490613d8d565b8015610a115780601f106109e657610100808354040283529160200191610a11565b820191906000526020600020905b8154815290600101906020018083116109f457829003601f168201915b5050505050905090565b6000610a2682611c62565b610a65576040517f08c379a0000000000000000000000000000000000000000000000000000000008152600401610a5c906139a4565b60405180910390fd5b6004600083815260200190815260200160002060009054906101000a900473ffffffffffffffffffffffffffffffffffffffff169050919050565b6000610aab826113a6565b90508073ffffffffffffffffffffffffffffffffffffffff168373ffffffffffffffffffffffffffffffffffffffff161415610b1c576040517f08c379a0000000000000000000000000000000000000000000000000000000008152600401610b1390613a24565b60405180910390fd5b8073ffffffffffffffffffffffffffffffffffffffff16610b3b611c5a565b73ffffffffffffffffffffffffffffffffffffffff161480610b6a5750610b6981610b64611c5a565b6119d4565b5b610ba9576040517f08c379a0000000000000000000000000000000000000000000000000000000008152600401610ba090613924565b60405180910390fd5b610bb38383611cce565b505050565b600d5481565b6000600880549050905090565b600f5481565b610be2610bdc611c5a565b82611d87565b610c21576040517f08c379a0000000000000000000000000000000000000000000000000000000008152600401610c1890613a44565b60405180910390fd5b610c2c838383611e65565b505050565b6000610c3c836114e6565b8210610c7d576040517f08c379a0000000000000000000000000000000000000000000000000000000008152600401610c7490613844565b60405180910390fd5b600660008473ffffffffffffffffffffffffffffffffffffffff1673ffffffffffffffffffffffffffffffffffffffff168152602001908152602001600020600083815260200190815260200160002054905092915050565b610cde611c5a565b73ffffffffffffffffffffffffffffffffffffffff16610cfc6116ac565b73ffffffffffffffffffffffffffffffffffffffff1614610d52576040517f08c379a0000000000000000000000000000000000000000000000000000000008152600401610d49906139c4565b60405180910390fd5b6000601160008373ffffffffffffffffffffffffffffffffffffffff1673ffffffffffffffffffffffffffffffffffffffff16815260200190815260200160002060006101000a81548160ff02191690831515021790555050565b610db5611c5a565b73ffffffffffffffffffffffffffffffffffffffff16610dd36116ac565b73ffffffffffffffffffffffffffffffffffffffff1614610e29576040517f08c379a0000000000000000000000000000000000000000000000000000000008152600401610e20906139c4565b60405180910390fd5b6000610e336116ac565b73ffffffffffffffffffffffffffffffffffffffff1647604051610e5690613769565b60006040518083038185875af1925050503d8060008114610e93576040519150601f19603f3d011682016040523d82523d6000602084013e610e98565b606091505b5050905080610ea657600080fd5b50565b6000610eb3610bbe565b9050601060009054906101000a900460ff1615610ecf57600080fd5b60008211610edc57600080fd5b600f54821115610eeb57600080fd5b600e548282610efa9190613bc2565b1115610f0557600080fd5b610f0d6116ac565b73ffffffffffffffffffffffffffffffffffffffff163373ffffffffffffffffffffffffffffffffffffffff1614610fb35760011515601160003373ffffffffffffffffffffffffffffffffffffffff1673ffffffffffffffffffffffffffffffffffffffff16815260200190815260200160002060009054906101000a900460ff16151514610fb25781600d54610fa59190613c49565b341015610fb157600080fd5b5b5b6000600190505b828111610fe957610fd6848284610fd19190613bc2565b6120c1565b8080610fe190613df0565b915050610fba565b50505050565b61100a8383836040518060200160405280600081525061177e565b505050565b6060600061101c836114e6565b905060008167ffffffffffffffff811115611060577f4e487b7100000000000000000000000000000000000000000000000000000000600052604160045260246000fd5b60405190808252806020026020018201604052801561108e5781602001602082028036833780820191505090505b50905060005b828110156110fe576110a68582610c31565b8282815181106110df577f4e487b7100000000000000000000000000000000000000000000000000000000600052603260045260246000fd5b60200260200101818152505080806110f690613df0565b915050611094565b508092505050919050565b611111611c5a565b73ffffffffffffffffffffffffffffffffffffffff1661112f6116ac565b73ffffffffffffffffffffffffffffffffffffffff1614611185576040517f08c379a000000000000000000000000000000000000000000000000000000000815260040161117c906139c4565b60405180910390fd5b80600d8190555050565b611197611c5a565b73ffffffffffffffffffffffffffffffffffffffff166111b56116ac565b73ffffffffffffffffffffffffffffffffffffffff161461120b576040517f08c379a0000000000000000000000000000000000000000000000000000000008152600401611202906139c4565b60405180910390fd5b6001601160008373ffffffffffffffffffffffffffffffffffffffff1673ffffffffffffffffffffffffffffffffffffffff16815260200190815260200160002060006101000a81548160ff02191690831515021790555050565b6000611270610bbe565b82106112b1576040517f08c379a00000000000000000000000000000000000000000000000000000000081526004016112a890613a64565b60405180910390fd5b600882815481106112eb577f4e487b7100000000000000000000000000000000000000000000000000000000600052603260045260246000fd5b90600052602060002001549050919050565b611305611c5a565b73ffffffffffffffffffffffffffffffffffffffff166113236116ac565b73ffffffffffffffffffffffffffffffffffffffff1614611379576040517f08c379a0000000000000000000000000000000000000000000000000000000008152600401611370906139c4565b60405180910390fd5b80600b908051906020019061138f929190612e63565b5050565b601060009054906101000a900460ff1681565b6000806002600084815260200190815260200160002060009054906101000a900473ffffffffffffffffffffffffffffffffffffffff169050600073ffffffffffffffffffffffffffffffffffffffff168173ffffffffffffffffffffffffffffffffffffffff16141561144f576040517f08c379a000000000000000000000000000000000000000000000000000000000815260040161144690613964565b60405180910390fd5b80915050919050565b600b805461146590613d8d565b80601f016020809104026020016040519081016040528092919081815260200182805461149190613d8d565b80156114de5780601f106114b3576101008083540402835291602001916114de565b820191906000526020600020905b8154815290600101906020018083116114c157829003601f168201915b505050505081565b60008073ffffffffffffffffffffffffffffffffffffffff168273ffffffffffffffffffffffffffffffffffffffff161415611557576040517f08c379a000000000000000000000000000000000000000000000000000000000815260040161154e90613944565b60405180910390fd5b600360008373ffffffffffffffffffffffffffffffffffffffff1673ffffffffffffffffffffffffffffffffffffffff168152602001908152602001600020549050919050565b6115a6611c5a565b73ffffffffffffffffffffffffffffffffffffffff166115c46116ac565b73ffffffffffffffffffffffffffffffffffffffff161461161a576040517f08c379a0000000000000000000000000000000000000000000000000000000008152600401611611906139c4565b60405180910390fd5b61162460006120df565b565b61162e611c5a565b73ffffffffffffffffffffffffffffffffffffffff1661164c6116ac565b73ffffffffffffffffffffffffffffffffffffffff16146116a2576040517f08c379a0000000000000000000000000000000000000000000000000000000008152600401611699906139c4565b60405180910390fd5b80600f8190555050565b6000600a60009054906101000a900473ffffffffffffffffffffffffffffffffffffffff16905090565b6060600180546116e590613d8d565b80601f016020809104026020016040519081016040528092919081815260200182805461171190613d8d565b801561175e5780601f106117335761010080835404028352916020019161175e565b820191906000526020600020905b81548152906001019060200180831161174157829003601f168201915b5050505050905090565b61177a611773611c5a565b83836121a5565b5050565b61178f611789611c5a565b83611d87565b6117ce576040517f08c379a00000000000000000000000000000000000000000000000000000000081526004016117c590613a44565b60405180910390fd5b6117da84848484612312565b50505050565b600c80546117ed90613d8d565b80601f016020809104026020016040519081016040528092919081815260200182805461181990613d8d565b80156118665780601f1061183b57610100808354040283529160200191611866565b820191906000526020600020905b81548152906001019060200180831161184957829003601f168201915b505050505081565b606061187982611c62565b6118b8576040517f08c379a00000000000000000000000000000000000000000000000000000000081526004016118af90613a04565b60405180910390fd5b60006118c261236e565b905060008151116118e25760405180602001604052806000815250611910565b806118ec84612400565b600c60405160200161190093929190613738565b6040516020818303038152906040525b915050919050565b600e5481565b60116020528060005260406000206000915054906101000a900460ff1681565b611946611c5a565b73ffffffffffffffffffffffffffffffffffffffff166119646116ac565b73ffffffffffffffffffffffffffffffffffffffff16146119ba576040517f08c379a00000000000000000000000000000000000000000000000000000000081526004016119b1906139c4565b60405180910390fd5b80600c90805190602001906119d0929190612e63565b5050565b6000600560008473ffffffffffffffffffffffffffffffffffffffff1673ffffffffffffffffffffffffffffffffffffffff16815260200190815260200160002060008373ffffffffffffffffffffffffffffffffffffffff1673ffffffffffffffffffffffffffffffffffffffff16815260200190815260200160002060009054906101000a900460ff16905092915050565b611a70611c5a565b73ffffffffffffffffffffffffffffffffffffffff16611a8e6116ac565b73ffffffffffffffffffffffffffffffffffffffff1614611ae4576040517f08c379a0000000000000000000000000000000000000000000000000000000008152600401611adb906139c4565b60405180910390fd5b600073ffffffffffffffffffffffffffffffffffffffff168173ffffffffffffffffffffffffffffffffffffffff161415611b54576040517f08c379a0000000000000000000000000000000000000000000000000000000008152600401611b4b90613884565b60405180910390fd5b611b5d816120df565b50565b600080823b905060008111915050919050565b505050565b60007f80ac58cd000000000000000000000000000000000000000000000000000000007bffffffffffffffffffffffffffffffffffffffffffffffffffffffff1916827bffffffffffffffffffffffffffffffffffffffffffffffffffffffff19161480611c4357507f5b5e139f000000000000000000000000000000000000000000000000000000007bffffffffffffffffffffffffffffffffffffffffffffffffffffffff1916827bffffffffffffffffffffffffffffffffffffffffffffffffffffffff1916145b80611c535750611c52826125ad565b5b9050919050565b600033905090565b60008073ffffffffffffffffffffffffffffffffffffffff166002600084815260200190815260200160002060009054906101000a900473ffffffffffffffffffffffffffffffffffffffff1673ffffffffffffffffffffffffffffffffffffffff1614159050919050565b816004600083815260200190815260200160002060006101000a81548173ffffffffffffffffffffffffffffffffffffffff021916908373ffffffffffffffffffffffffffffffffffffffff160217905550808273ffffffffffffffffffffffffffffffffffffffff16611d41836113a6565b73ffffffffffffffffffffffffffffffffffffffff167f8c5be1e5ebec7d5bd14f71427d1e84f3dd0314c0f7b2291e5b200ac8c7c3b92560405160405180910390a45050565b6000611d9282611c62565b611dd1576040517f08c379a0000000000000000000000000000000000000000000000000000000008152600401611dc890613904565b60405180910390fd5b6000611ddc836113a6565b90508073ffffffffffffffffffffffffffffffffffffffff168473ffffffffffffffffffffffffffffffffffffffff161480611e4b57508373ffffffffffffffffffffffffffffffffffffffff16611e3384610a1b565b73ffffffffffffffffffffffffffffffffffffffff16145b80611e5c5750611e5b81856119d4565b5b91505092915050565b8273ffffffffffffffffffffffffffffffffffffffff16611e85826113a6565b73ffffffffffffffffffffffffffffffffffffffff1614611edb576040517f08c379a0000000000000000000000000000000000000000000000000000000008152600401611ed2906139e4565b60405180910390fd5b600073ffffffffffffffffffffffffffffffffffffffff168273ffffffffffffffffffffffffffffffffffffffff161415611f4b576040517f08c379a0000000000000000000000000000000000000000000000000000000008152600401611f42906138c4565b60405180910390fd5b611f56838383612617565b611f61600082611cce565b6001600360008573ffffffffffffffffffffffffffffffffffffffff1673ffffffffffffffffffffffffffffffffffffffff1681526020019081526020016000206000828254611fb19190613ca3565b925050819055506001600360008473ffffffffffffffffffffffffffffffffffffffff1673ffffffffffffffffffffffffffffffffffffffff16815260200190815260200160002060008282546120089190613bc2565b92505081905550816002600083815260200190815260200160002060006101000a81548173ffffffffffffffffffffffffffffffffffffffff021916908373ffffffffffffffffffffffffffffffffffffffff160217905550808273ffffffffffffffffffffffffffffffffffffffff168473ffffffffffffffffffffffffffffffffffffffff167fddf252ad1be2c89b69c2b068fc378daa952ba7f163c4a11628f55a4df523b3ef60405160405180910390a4505050565b6120db82826040518060200160405280600081525061272b565b5050565b6000600a60009054906101000a900473ffffffffffffffffffffffffffffffffffffffff16905081600a60006101000a81548173ffffffffffffffffffffffffffffffffffffffff021916908373ffffffffffffffffffffffffffffffffffffffff1602179055508173ffffffffffffffffffffffffffffffffffffffff168173ffffffffffffffffffffffffffffffffffffffff167f8be0079c531659141344cd1fd0a4f28419497f9722a3daafe3b4186f6b6457e060405160405180910390a35050565b8173ffffffffffffffffffffffffffffffffffffffff168373ffffffffffffffffffffffffffffffffffffffff161415612214576040517f08c379a000000000000000000000000000000000000000000000000000000000815260040161220b906138e4565b60405180910390fd5b80600560008573ffffffffffffffffffffffffffffffffffffffff1673ffffffffffffffffffffffffffffffffffffffff16815260200190815260200160002060008473ffffffffffffffffffffffffffffffffffffffff1673ffffffffffffffffffffffffffffffffffffffff16815260200190815260200160002060006101000a81548160ff0219169083151502179055508173ffffffffffffffffffffffffffffffffffffffff168373ffffffffffffffffffffffffffffffffffffffff167f17307eab39ab6107e8899845ad3d59bd9653f200f220920489ca2b5937696c31836040516123059190613807565b60405180910390a3505050565b61231d848484611e65565b61232984848484612786565b612368576040517f08c379a000000000000000000000000000000000000000000000000000000000815260040161235f90613864565b60405180910390fd5b50505050565b6060600b805461237d90613d8d565b80601f01602080910402602001604051908101604052809291908181526020018280546123a990613d8d565b80156123f65780601f106123cb576101008083540402835291602001916123f6565b820191906000526020600020905b8154815290600101906020018083116123d957829003601f168201915b5050505050905090565b60606000821415612448576040518060400160405280600181526020017f300000000000000000000000000000000000000000000000000000000000000081525090506125a8565b600082905060005b6000821461247a57808061246390613df0565b915050600a826124739190613c18565b9150612450565b60008167ffffffffffffffff8111156124bc577f4e487b7100000000000000000000000000000000000000000000000000000000600052604160045260246000fd5b6040519080825280601f01601f1916602001820160405280156124ee5781602001600182028036833780820191505090505b5090505b600085146125a1576001826125079190613ca3565b9150600a856125169190613e39565b60306125229190613bc2565b60f81b81838151811061255e577f4e487b7100000000000000000000000000000000000000000000000000000000600052603260045260246000fd5b60200101907effffffffffffffffffffffffffffffffffffffffffffffffffffffffffffff1916908160001a905350600a8561259a9190613c18565b94506124f2565b8093505050505b919050565b60007f01ffc9a7000000000000000000000000000000000000000000000000000000007bffffffffffffffffffffffffffffffffffffffffffffffffffffffff1916827bffffffffffffffffffffffffffffffffffffffffffffffffffffffff1916149050919050565b612622838383611b73565b600073ffffffffffffffffffffffffffffffffffffffff168373ffffffffffffffffffffffffffffffffffffffff161415612665576126608161291d565b6126a4565b8173ffffffffffffffffffffffffffffffffffffffff168373ffffffffffffffffffffffffffffffffffffffff16146126a3576126a28382612966565b5b5b600073ffffffffffffffffffffffffffffffffffffffff168273ffffffffffffffffffffffffffffffffffffffff1614156126e7576126e281612ad3565b612726565b8273ffffffffffffffffffffffffffffffffffffffff168273ffffffffffffffffffffffffffffffffffffffff1614612725576127248282612c16565b5b5b505050565b6127358383612c95565b6127426000848484612786565b612781576040517f08c379a000000000000000000000000000000000000000000000000000000000815260040161277890613864565b60405180910390fd5b505050565b60006127a78473ffffffffffffffffffffffffffffffffffffffff16611b60565b15612910578373ffffffffffffffffffffffffffffffffffffffff1663150b7a026127d0611c5a565b8786866040518563ffffffff1660e01b81526004016127f29493929190613799565b602060405180830381600087803b15801561280c57600080fd5b505af192505050801561283d57506040513d601f19601f8201168201806040525081019061283a9190613238565b60015b6128c0573d806000811461286d576040519150601f19603f3d011682016040523d82523d6000602084013e612872565b606091505b506000815114156128b8576040517f08c379a00000000000000000000000000000000000000000000000000000000081526004016128af90613864565b60405180910390fd5b805181602001fd5b63150b7a0260e01b7bffffffffffffffffffffffffffffffffffffffffffffffffffffffff1916817bffffffffffffffffffffffffffffffffffffffffffffffffffffffff191614915050612915565b600190505b949350505050565b6008805490506009600083815260200190815260200160002081905550600881908060018154018082558091505060019003906000526020600020016000909190919091505550565b60006001612973846114e6565b61297d9190613ca3565b9050600060076000848152602001908152602001600020549050818114612a62576000600660008673ffffffffffffffffffffffffffffffffffffffff1673ffffffffffffffffffffffffffffffffffffffff168152602001908152602001600020600084815260200190815260200160002054905080600660008773ffffffffffffffffffffffffffffffffffffffff1673ffffffffffffffffffffffffffffffffffffffff168152602001908152602001600020600084815260200190815260200160002081905550816007600083815260200190815260200160002081905550505b6007600084815260200190815260200160002060009055600660008573ffffffffffffffffffffffffffffffffffffffff1673ffffffffffffffffffffffffffffffffffffffff16815260200190815260200160002060008381526020019081526020016000206000905550505050565b60006001600880549050612ae79190613ca3565b9050600060096000848152602001908152602001600020549050600060088381548110612b3d577f4e487b7100000000000000000000000000000000000000000000000000000000600052603260045260246000fd5b906000526020600020015490508060088381548110612b85577f4e487b7100000000000000000000000000000000000000000000000000000000600052603260045260246000fd5b906000526020600020018190555081600960008381526020019081526020016000208190555060096000858152602001908152602001600020600090556008805480612bfa577f4e487b7100000000000000000000000000000000000000000000000000000000600052603160045260246000fd5b6001900381819060005260206000200160009055905550505050565b6000612c21836114e6565b905081600660008573ffffffffffffffffffffffffffffffffffffffff1673ffffffffffffffffffffffffffffffffffffffff168152602001908152602001600020600083815260200190815260200160002081905550806007600084815260200190815260200160002081905550505050565b600073ffffffffffffffffffffffffffffffffffffffff168273ffffffffffffffffffffffffffffffffffffffff161415612d05576040517f08c379a0000000000000000000000000000000000000000000000000000000008152600401612cfc90613984565b60405180910390fd5b612d0e81611c62565b15612d4e576040517f08c379a0000000000000000000000000000000000000000000000000000000008152600401612d45906138a4565b60405180910390fd5b612d5a60008383612617565b6001600360008473ffffffffffffffffffffffffffffffffffffffff1673ffffffffffffffffffffffffffffffffffffffff1681526020019081526020016000206000828254612daa9190613bc2565b92505081905550816002600083815260200190815260200160002060006101000a81548173ffffffffffffffffffffffffffffffffffffffff021916908373ffffffffffffffffffffffffffffffffffffffff160217905550808273ffffffffffffffffffffffffffffffffffffffff16600073ffffffffffffffffffffffffffffffffffffffff167fddf252ad1be2c89b69c2b068fc378daa952ba7f163c4a11628f55a4df523b3ef60405160405180910390a45050565b828054612e6f90613d8d565b90600052602060002090601f016020900481019282612e915760008555612ed8565b82601f10612eaa57805160ff1916838001178555612ed8565b82800160010185558215612ed8579182015b82811115612ed7578251825591602001919060010190612ebc565b5b509050612ee59190612ee9565b5090565b5b80821115612f02576000816000905550600101612eea565b5090565b6000612f19612f1484613ac4565b613a9f565b905082815260208101848484011115612f3157600080fd5b612f3c848285613d4b565b509392505050565b6000612f57612f5284613af5565b613a9f565b905082815260208101848484011115612f6f57600080fd5b612f7a848285613d4b565b509392505050565b600081359050612f9181614430565b92915050565b600081359050612fa681614447565b92915050565b600081359050612fbb8161445e565b92915050565b600081519050612fd08161445e565b92915050565b600082601f830112612fe757600080fd5b8135612ff7848260208601612f06565b91505092915050565b600082601f83011261301157600080fd5b8135613021848260208601612f44565b91505092915050565b60008135905061303981614475565b92915050565b60006020828403121561305157600080fd5b600061305f84828501612f82565b91505092915050565b6000806040838503121561307b57600080fd5b600061308985828601612f82565b925050602061309a85828601612f82565b9150509250929050565b6000806000606084860312156130b957600080fd5b60006130c786828701612f82565b93505060206130d886828701612f82565b92505060406130e98682870161302a565b9150509250925092565b6000806000806080858703121561310957600080fd5b600061311787828801612f82565b945050602061312887828801612f82565b93505060406131398782880161302a565b925050606085013567ffffffffffffffff81111561315657600080fd5b61316287828801612fd6565b91505092959194509250565b6000806040838503121561318157600080fd5b600061318f85828601612f82565b92505060206131a085828601612f97565b9150509250929050565b600080604083850312156131bd57600080fd5b60006131cb85828601612f82565b92505060206131dc8582860161302a565b9150509250929050565b6000602082840312156131f857600080fd5b600061320684828501612f97565b91505092915050565b60006020828403121561322157600080fd5b600061322f84828501612fac565b91505092915050565b60006020828403121561324a57600080fd5b600061325884828501612fc1565b91505092915050565b60006020828403121561327357600080fd5b600082013567ffffffffffffffff81111561328d57600080fd5b61329984828501613000565b91505092915050565b6000602082840312156132b457600080fd5b60006132c28482850161302a565b91505092915050565b60006132d7838361371a565b60208301905092915050565b6132ec81613cd7565b82525050565b60006132fd82613b4b565b6133078185613b79565b935061331283613b26565b8060005b8381101561334357815161332a88826132cb565b975061333583613b6c565b925050600181019050613316565b5085935050505092915050565b61335981613ce9565b82525050565b600061336a82613b56565b6133748185613b8a565b9350613384818560208601613d5a565b61338d81613f26565b840191505092915050565b60006133a382613b61565b6133ad8185613ba6565b93506133bd818560208601613d5a565b6133c681613f26565b840191505092915050565b60006133dc82613b61565b6133e68185613bb7565b93506133f6818560208601613d5a565b80840191505092915050565b6000815461340f81613d8d565b6134198186613bb7565b94506001821660008114613434576001811461344557613478565b60ff19831686528186019350613478565b61344e85613b36565b60005b8381101561347057815481890152600182019150602081019050613451565b838801955050505b50505092915050565b600061348e602b83613ba6565b915061349982613f37565b604082019050919050565b60006134b1603283613ba6565b91506134bc82613f86565b604082019050919050565b60006134d4602683613ba6565b91506134df82613fd5565b604082019050919050565b60006134f7601c83613ba6565b915061350282614024565b602082019050919050565b600061351a602483613ba6565b91506135258261404d565b604082019050919050565b600061353d601983613ba6565b91506135488261409c565b602082019050919050565b6000613560602c83613ba6565b915061356b826140c5565b604082019050919050565b6000613583603883613ba6565b915061358e82614114565b604082019050919050565b60006135a6602a83613ba6565b91506135b182614163565b604082019050919050565b60006135c9602983613ba6565b91506135d4826141b2565b604082019050919050565b60006135ec602083613ba6565b91506135f782614201565b602082019050919050565b600061360f602c83613ba6565b915061361a8261422a565b604082019050919050565b6000613632602083613ba6565b915061363d82614279565b602082019050919050565b6000613655602983613ba6565b9150613660826142a2565b604082019050919050565b6000613678602f83613ba6565b9150613683826142f1565b604082019050919050565b600061369b602183613ba6565b91506136a682614340565b604082019050919050565b60006136be600083613b9b565b91506136c98261438f565b600082019050919050565b60006136e1603183613ba6565b91506136ec82614392565b604082019050919050565b6000613704602c83613ba6565b915061370f826143e1565b604082019050919050565b61372381613d41565b82525050565b61373281613d41565b82525050565b600061374482866133d1565b915061375082856133d1565b915061375c8284613402565b9150819050949350505050565b6000613774826136b1565b9150819050919050565b600060208201905061379360008301846132e3565b92915050565b60006080820190506137ae60008301876132e3565b6137bb60208301866132e3565b6137c86040830185613729565b81810360608301526137da818461335f565b905095945050505050565b600060208201905081810360008301526137ff81846132f2565b905092915050565b600060208201905061381c6000830184613350565b92915050565b6000602082019050818103600083015261383c8184613398565b905092915050565b6000602082019050818103600083015261385d81613481565b9050919050565b6000602082019050818103600083015261387d816134a4565b9050919050565b6000602082019050818103600083015261389d816134c7565b9050919050565b600060208201905081810360008301526138bd816134ea565b9050919050565b600060208201905081810360008301526138dd8161350d565b9050919050565b600060208201905081810360008301526138fd81613530565b9050919050565b6000602082019050818103600083015261391d81613553565b9050919050565b6000602082019050818103600083015261393d81613576565b9050919050565b6000602082019050818103600083015261395d81613599565b9050919050565b6000602082019050818103600083015261397d816135bc565b9050919050565b6000602082019050818103600083015261399d816135df565b9050919050565b600060208201905081810360008301526139bd81613602565b9050919050565b600060208201905081810360008301526139dd81613625565b9050919050565b600060208201905081810360008301526139fd81613648565b9050919050565b60006020820190508181036000830152613a1d8161366b565b9050919050565b60006020820190508181036000830152613a3d8161368e565b9050919050565b60006020820190508181036000830152613a5d816136d4565b9050919050565b60006020820190508181036000830152613a7d816136f7565b9050919050565b6000602082019050613a996000830184613729565b92915050565b6000613aa9613aba565b9050613ab58282613dbf565b919050565b6000604051905090565b600067ffffffffffffffff821115613adf57613ade613ef7565b5b613ae882613f26565b9050602081019050919050565b600067ffffffffffffffff821115613b1057613b0f613ef7565b5b613b1982613f26565b9050602081019050919050565b6000819050602082019050919050565b60008190508160005260206000209050919050565b600081519050919050565b600081519050919050565b600081519050919050565b6000602082019050919050565b600082825260208201905092915050565b600082825260208201905092915050565b600081905092915050565b600082825260208201905092915050565b600081905092915050565b6000613bcd82613d41565b9150613bd883613d41565b9250827fffffffffffffffffffffffffffffffffffffffffffffffffffffffffffffffff03821115613c0d57613c0c613e6a565b5b828201905092915050565b6000613c2382613d41565b9150613c2e83613d41565b925082613c3e57613c3d613e99565b5b828204905092915050565b6000613c5482613d41565b9150613c5f83613d41565b9250817fffffffffffffffffffffffffffffffffffffffffffffffffffffffffffffffff0483118215151615613c9857613c97613e6a565b5b828202905092915050565b6000613cae82613d41565b9150613cb983613d41565b925082821015613ccc57613ccb613e6a565b5b828203905092915050565b6000613ce282613d21565b9050919050565b60008115159050919050565b60007fffffffff0000000000000000000000000000000000000000000000000000000082169050919050565b600073ffffffffffffffffffffffffffffffffffffffff82169050919050565b6000819050919050565b82818337600083830152505050565b60005b83811015613d78578082015181840152602081019050613d5d565b83811115613d87576000848401525b50505050565b60006002820490506001821680613da557607f821691505b60208210811415613db957613db8613ec8565b5b50919050565b613dc882613f26565b810181811067ffffffffffffffff82111715613de757613de6613ef7565b5b80604052505050565b6000613dfb82613d41565b91507fffffffffffffffffffffffffffffffffffffffffffffffffffffffffffffffff821415613e2e57613e2d613e6a565b5b600182019050919050565b6000613e4482613d41565b9150613e4f83613d41565b925082613e5f57613e5e613e99565b5b828206905092915050565b7f4e487b7100000000000000000000000000000000000000000000000000000000600052601160045260246000fd5b7f4e487b7100000000000000000000000000000000000000000000000000000000600052601260045260246000fd5b7f4e487b7100000000000000000000000000000000000000000000000000000000600052602260045260246000fd5b7f4e487b7100000000000000000000000000000000000000000000000000000000600052604160045260246000fd5b6000601f19601f8301169050919050565b7f455243373231456e756d657261626c653a206f776e657220696e646578206f7560008201527f74206f6620626f756e6473000000000000000000000000000000000000000000602082015250565b7f4552433732313a207472616e7366657220746f206e6f6e20455243373231526560008201527f63656976657220696d706c656d656e7465720000000000000000000000000000602082015250565b7f4f776e61626c653a206e6577206f776e657220697320746865207a65726f206160008201527f6464726573730000000000000000000000000000000000000000000000000000602082015250565b7f4552433732313a20746f6b656e20616c7265616479206d696e74656400000000600082015250565b7f4552433732313a207472616e7366657220746f20746865207a65726f2061646460008201527f7265737300000000000000000000000000000000000000000000000000000000602082015250565b7f4552433732313a20617070726f766520746f2063616c6c657200000000000000600082015250565b7f4552433732313a206f70657261746f7220717565727920666f72206e6f6e657860008201527f697374656e7420746f6b656e0000000000000000000000000000000000000000602082015250565b7f4552433732313a20617070726f76652063616c6c6572206973206e6f74206f7760008201527f6e6572206e6f7220617070726f76656420666f7220616c6c0000000000000000602082015250565b7f4552433732313a2062616c616e636520717565727920666f7220746865207a6560008201527f726f206164647265737300000000000000000000000000000000000000000000602082015250565b7f4552433732313a206f776e657220717565727920666f72206e6f6e657869737460008201527f656e7420746f6b656e0000000000000000000000000000000000000000000000602082015250565b7f4552433732313a206d696e7420746f20746865207a65726f2061646472657373600082015250565b7f4552433732313a20617070726f76656420717565727920666f72206e6f6e657860008201527f697374656e7420746f6b656e0000000000000000000000000000000000000000602082015250565b7f4f776e61626c653a2063616c6c6572206973206e6f7420746865206f776e6572600082015250565b7f4552433732313a207472616e73666572206f6620746f6b656e2074686174206960008201527f73206e6f74206f776e0000000000000000000000000000000000000000000000602082015250565b7f4552433732314d657461646174613a2055524920717565727920666f72206e6f60008201527f6e6578697374656e7420746f6b656e0000000000000000000000000000000000602082015250565b7f4552433732313a20617070726f76616c20746f2063757272656e74206f776e6560008201527f7200000000000000000000000000000000000000000000000000000000000000602082015250565b50565b7f4552433732313a207472616e736665722063616c6c6572206973206e6f74206f60008201527f776e6572206e6f7220617070726f766564000000000000000000000000000000602082015250565b7f455243373231456e756d657261626c653a20676c6f62616c20696e646578206f60008201527f7574206f6620626f756e64730000000000000000000000000000000000000000602082015250565b61443981613cd7565b811461444457600080fd5b50565b61445081613ce9565b811461445b57600080fd5b50565b61446781613cf5565b811461447257600080fd5b50565b61447e81613d41565b811461448957600080fd5b5056fea26469706673582212208045c50528adf2afb4ae571532c275ca24ee9e867cf3faad5903adc72ffce16464736f6c63430008040033",
  "immutableReferences": {},
  "source": "// SPDX-License-Identifier: MIT\n//pragma solidity >=0.4.21 <0.7.0;\n\npragma solidity >=0.7.0 <0.9.0;\n// pragma solidity ^0.8.0;\n//pragma solidity ^0.5.16;\n\n\ncontract SimpleStorage {\n  uint[10] public values;\n\n  function add(uint x) public {\n    require(x >= 0 && x < 10);\n\n    values[x] = x;\n  }\n  \n  function showEverything() public view returns (uint[10] memory) {\n    return values;\n  }\n}\n\ncontract SimpleStorage2 {\n  uint storedData;\n  uint[10] public values; \n\n  function set(uint x) public {\n    storedData = x;\n  }\n\n  function get() public view returns (uint) {\n    return storedData;\n  }\n}\n\nimport \"@openzeppelin/contracts/token/ERC721/extensions/ERC721Enumerable.sol\";\nimport \"@openzeppelin/contracts/access/Ownable.sol\";\n\ncontract NFT is ERC721Enumerable, Ownable {\n  using Strings for uint256;\n\n  string public baseURI;\n  string public baseExtension = \".json\";\n  uint256 public cost = 0.05 ether;\n  uint256 public maxSupply = 10000;\n  uint256 public maxMintAmount = 20;\n  bool public paused = false;\n  mapping(address => bool) public whitelisted;\n\n  constructor(\n    string memory _name,\n    string memory _symbol,\n    string memory _initBaseURI\n  ) ERC721(_name, _symbol) {\n    setBaseURI(_initBaseURI);\n    mint(msg.sender, 20);\n  }\n\n  // internal\n  function _baseURI() internal view virtual override returns (string memory) {\n    return baseURI;\n  }\n\n  // public\n  // hello world\n  function mint(address _to, uint256 _mintAmount) public payable {\n    uint256 supply = totalSupply();\n    require(!paused);\n    require(_mintAmount > 0);\n    require(_mintAmount <= maxMintAmount);\n    require(supply + _mintAmount <= maxSupply);\n\n    if (msg.sender != owner()) {\n        if(whitelisted[msg.sender] != true) {\n          require(msg.value >= cost * _mintAmount);\n        }\n    }\n\n    for (uint256 i = 1; i <= _mintAmount; i++) {\n      _safeMint(_to, supply + i);\n    }\n  }\n\n  function walletOfOwner(address _owner)\n    public\n    view\n    returns (uint256[] memory)\n  {\n    uint256 ownerTokenCount = balanceOf(_owner);\n    uint256[] memory tokenIds = new uint256[](ownerTokenCount);\n    for (uint256 i; i < ownerTokenCount; i++) {\n      tokenIds[i] = tokenOfOwnerByIndex(_owner, i);\n    }\n    return tokenIds;\n  }\n\n  function tokenURI(uint256 tokenId)\n    public\n    view\n    virtual\n    override\n    returns (string memory)\n  {\n    require(\n      _exists(tokenId),\n      \"ERC721Metadata: URI query for nonexistent token\"\n    );\n\n    string memory currentBaseURI = _baseURI();\n    return bytes(currentBaseURI).length > 0\n        ? string(abi.encodePacked(currentBaseURI, tokenId.toString(), baseExtension))\n        : \"\";\n  }\n\n  //only owner\n  function setCost(uint256 _newCost) public onlyOwner {\n    cost = _newCost;\n  }\n\n  function setmaxMintAmount(uint256 _newmaxMintAmount) public onlyOwner {\n    maxMintAmount = _newmaxMintAmount;\n  }\n\n  function setBaseURI(string memory _newBaseURI) public onlyOwner {\n    baseURI = _newBaseURI;\n  }\n\n  function setBaseExtension(string memory _newBaseExtension) public onlyOwner {\n    baseExtension = _newBaseExtension;\n  }\n\n  function pause(bool _state) public onlyOwner {\n    paused = _state;\n  }\n \n function whitelistUser(address _user) public onlyOwner {\n    whitelisted[_user] = true;\n  }\n \n  function removeWhitelistUser(address _user) public onlyOwner {\n    whitelisted[_user] = false;\n  }\n\n  function withdraw() public payable onlyOwner {\n    // This will payout the owner 95% of the contract balance.\n    // Do not remove this otherwise you will not be able to withdraw the funds.\n    // =============================================================================\n    (bool os, ) = payable(owner()).call{value: address(this).balance}(\"\");\n    require(os);\n    // =============================================================================\n  }\n}",
  "sourcePath": "G:\\dapps\\minter\\contracts\\SimpleStorage.sol",
  "compiler": {
    "name": "solc",
    "version": "0.8.4+commit.c7e474f2.Emscripten.clang"
  },
  "schemaVersion": "3.4.3",
  "updatedAt": "2021-12-17T08:31:24.008Z",
  "devdoc": {
    "kind": "dev",
    "methods": {
      "approve(address,uint256)": {
        "details": "See {IERC721-approve}."
      },
      "balanceOf(address)": {
        "details": "See {IERC721-balanceOf}."
      },
      "getApproved(uint256)": {
        "details": "See {IERC721-getApproved}."
      },
      "isApprovedForAll(address,address)": {
        "details": "See {IERC721-isApprovedForAll}."
      },
      "name()": {
        "details": "See {IERC721Metadata-name}."
      },
      "owner()": {
        "details": "Returns the address of the current owner."
      },
      "ownerOf(uint256)": {
        "details": "See {IERC721-ownerOf}."
      },
      "renounceOwnership()": {
        "details": "Leaves the contract without owner. It will not be possible to call `onlyOwner` functions anymore. Can only be called by the current owner. NOTE: Renouncing ownership will leave the contract without an owner, thereby removing any functionality that is only available to the owner."
      },
      "safeTransferFrom(address,address,uint256)": {
        "details": "See {IERC721-safeTransferFrom}."
      },
      "safeTransferFrom(address,address,uint256,bytes)": {
        "details": "See {IERC721-safeTransferFrom}."
      },
      "setApprovalForAll(address,bool)": {
        "details": "See {IERC721-setApprovalForAll}."
      },
      "supportsInterface(bytes4)": {
        "details": "See {IERC165-supportsInterface}."
      },
      "symbol()": {
        "details": "See {IERC721Metadata-symbol}."
      },
      "tokenByIndex(uint256)": {
        "details": "See {IERC721Enumerable-tokenByIndex}."
      },
      "tokenOfOwnerByIndex(address,uint256)": {
        "details": "See {IERC721Enumerable-tokenOfOwnerByIndex}."
      },
      "tokenURI(uint256)": {
        "details": "See {IERC721Metadata-tokenURI}."
      },
      "totalSupply()": {
        "details": "See {IERC721Enumerable-totalSupply}."
      },
      "transferFrom(address,address,uint256)": {
        "details": "See {IERC721-transferFrom}."
      },
      "transferOwnership(address)": {
        "details": "Transfers ownership of the contract to a new account (`newOwner`). Can only be called by the current owner."
      }
    },
    "version": 1
  },
  "userdoc": {
    "kind": "user",
    "methods": {},
    "version": 1
  }
}